{
  "contractName": "FAGARU",
  "abi": [
    {
      "anonymous": false,
      "inputs": [
        {
          "indexed": true,
          "internalType": "address",
          "name": "doctorId",
          "type": "address"
        }
      ],
      "name": "DoctorAdded",
      "type": "event"
    },
    {
      "anonymous": false,
      "inputs": [
        {
          "indexed": true,
          "internalType": "address",
          "name": "patientId",
          "type": "address"
        }
      ],
      "name": "PatientAdded",
      "type": "event"
    },
    {
      "anonymous": false,
      "inputs": [
        {
          "indexed": true,
          "internalType": "string",
          "name": "cid",
          "type": "string"
        },
        {
          "indexed": true,
          "internalType": "address",
          "name": "patientId",
          "type": "address"
        },
        {
          "indexed": true,
          "internalType": "address",
          "name": "doctorId",
          "type": "address"
        }
      ],
      "name": "RecordAdded",
      "type": "event"
    },
    {
      "inputs": [
        {
          "internalType": "address",
          "name": "_patientId",
          "type": "address"
        }
      ],
      "name": "addPatient",
      "outputs": [],
      "stateMutability": "nonpayable",
      "type": "function"
    },
    {
      "inputs": [],
      "name": "addDoctor",
      "outputs": [],
      "stateMutability": "nonpayable",
      "type": "function"
    },
    {
      "inputs": [
        {
          "internalType": "string",
          "name": "_cid",
          "type": "string"
        },
        {
          "internalType": "string",
          "name": "_fileName",
          "type": "string"
        },
        {
          "internalType": "address",
          "name": "_patientId",
          "type": "address"
        }
      ],
      "name": "addRecord",
      "outputs": [],
      "stateMutability": "nonpayable",
      "type": "function"
    },
    {
      "inputs": [
        {
          "internalType": "address",
          "name": "_patientId",
          "type": "address"
        }
      ],
      "name": "getRecords",
      "outputs": [
        {
          "components": [
            {
              "internalType": "string",
              "name": "cid",
              "type": "string"
            },
            {
              "internalType": "string",
              "name": "fileName",
              "type": "string"
            },
            {
              "internalType": "address",
              "name": "patientId",
              "type": "address"
            },
            {
              "internalType": "address",
              "name": "doctorId",
              "type": "address"
            },
            {
              "internalType": "uint256",
              "name": "timeAdded",
              "type": "uint256"
            }
          ],
          "internalType": "struct FAGARU.Record[]",
          "name": "",
          "type": "tuple[]"
        }
      ],
      "stateMutability": "view",
      "type": "function",
      "constant": true
    },
    {
      "inputs": [],
      "name": "getSenderRole",
      "outputs": [
        {
          "internalType": "string",
          "name": "",
          "type": "string"
        }
      ],
      "stateMutability": "view",
      "type": "function",
      "constant": true
    },
    {
      "inputs": [
        {
          "internalType": "address",
          "name": "_patientId",
          "type": "address"
        }
      ],
      "name": "getPatientExists",
      "outputs": [
        {
          "internalType": "bool",
          "name": "",
          "type": "bool"
        }
      ],
      "stateMutability": "view",
      "type": "function",
      "constant": true
    }
  ],
  "bytecode": "0x608060405234801561001057600080fd5b5061183d806100206000396000f3fe608060405234801561001057600080fd5b50600436106100625760003560e01c80633a88162e1461006757806356daecb3146100855780636d263ceb146100a157806375a3f4e3146100bd5780637bc769ed146100c7578063a0076e84146100f7575b600080fd5b61006f610127565b60405161007c9190611531565b60405180910390f35b61009f600480360381019061009a9190611148565b61030a565b005b6100bb60048036038101906100b6919061111f565b6105e7565b005b6100c561084d565b005b6100e160048036038101906100dc919061111f565b6109e4565b6040516100ee9190611516565b60405180910390f35b610111600480360381019061010c919061111f565b610b4d565b60405161011e91906114f4565b60405180910390f35b60603373ffffffffffffffffffffffffffffffffffffffff16600160003373ffffffffffffffffffffffffffffffffffffffff1673ffffffffffffffffffffffffffffffffffffffff16815260200190815260200160002060000160009054906101000a900473ffffffffffffffffffffffffffffffffffffffff1673ffffffffffffffffffffffffffffffffffffffff1614156101fc576040518060400160405280600681526020017f646f63746f7200000000000000000000000000000000000000000000000000008152509050610307565b3373ffffffffffffffffffffffffffffffffffffffff166000803373ffffffffffffffffffffffffffffffffffffffff1673ffffffffffffffffffffffffffffffffffffffff16815260200190815260200160002060000160009054906101000a900473ffffffffffffffffffffffffffffffffffffffff1673ffffffffffffffffffffffffffffffffffffffff1614156102ce576040518060400160405280600781526020017f70617469656e74000000000000000000000000000000000000000000000000008152509050610307565b6040518060400160405280600781526020017f756e6b6e6f776e0000000000000000000000000000000000000000000000000081525090505b90565b808073ffffffffffffffffffffffffffffffffffffffff166000808373ffffffffffffffffffffffffffffffffffffffff1673ffffffffffffffffffffffffffffffffffffffff16815260200190815260200160002060000160009054906101000a900473ffffffffffffffffffffffffffffffffffffffff1673ffffffffffffffffffffffffffffffffffffffff16146103da576040517f08c379a00000000000000000000000000000000000000000000000000000000081526004016103d1906115b3565b60405180910390fd5b60006040518060a001604052808681526020018581526020018473ffffffffffffffffffffffffffffffffffffffff1681526020013373ffffffffffffffffffffffffffffffffffffffff1681526020014281525090506000808473ffffffffffffffffffffffffffffffffffffffff1673ffffffffffffffffffffffffffffffffffffffff16815260200190815260200160002060010181908060018154018082558091505060019003906000526020600020906005020160009091909190915060008201518160000190805190602001906104b8929190610fff565b5060208201518160010190805190602001906104d5929190610fff565b5060408201518160020160006101000a81548173ffffffffffffffffffffffffffffffffffffffff021916908373ffffffffffffffffffffffffffffffffffffffff16021790555060608201518160030160006101000a81548173ffffffffffffffffffffffffffffffffffffffff021916908373ffffffffffffffffffffffffffffffffffffffff1602179055506080820151816004015550503373ffffffffffffffffffffffffffffffffffffffff168373ffffffffffffffffffffffffffffffffffffffff16866040516105ac91906114dd565b60405180910390207f79439a93ba0b8067e556b3942a78ac58d991c58e2e23041c4e7aa1c446fc118860405160405180910390a45050505050565b3373ffffffffffffffffffffffffffffffffffffffff16600160003373ffffffffffffffffffffffffffffffffffffffff1673ffffffffffffffffffffffffffffffffffffffff16815260200190815260200160002060000160009054906101000a900473ffffffffffffffffffffffffffffffffffffffff1673ffffffffffffffffffffffffffffffffffffffff16146106b7576040517f08c379a00000000000000000000000000000000000000000000000000000000081526004016106ae90611573565b60405180910390fd5b8073ffffffffffffffffffffffffffffffffffffffff166000808373ffffffffffffffffffffffffffffffffffffffff1673ffffffffffffffffffffffffffffffffffffffff16815260200190815260200160002060000160009054906101000a900473ffffffffffffffffffffffffffffffffffffffff1673ffffffffffffffffffffffffffffffffffffffff161415610787576040517f08c379a000000000000000000000000000000000000000000000000000000000815260040161077e90611593565b60405180910390fd5b806000808373ffffffffffffffffffffffffffffffffffffffff1673ffffffffffffffffffffffffffffffffffffffff16815260200190815260200160002060000160006101000a81548173ffffffffffffffffffffffffffffffffffffffff021916908373ffffffffffffffffffffffffffffffffffffffff1602179055508073ffffffffffffffffffffffffffffffffffffffff167fa58cff07db0adda3ab7a40bd2f18ab57210bf38391a52ffd2e8eee6b8bdec71a60405160405180910390a250565b3373ffffffffffffffffffffffffffffffffffffffff16600160003373ffffffffffffffffffffffffffffffffffffffff1673ffffffffffffffffffffffffffffffffffffffff16815260200190815260200160002060000160009054906101000a900473ffffffffffffffffffffffffffffffffffffffff1673ffffffffffffffffffffffffffffffffffffffff16141561091e576040517f08c379a0000000000000000000000000000000000000000000000000000000008152600401610915906115d3565b60405180910390fd5b33600160003373ffffffffffffffffffffffffffffffffffffffff1673ffffffffffffffffffffffffffffffffffffffff16815260200190815260200160002060000160006101000a81548173ffffffffffffffffffffffffffffffffffffffff021916908373ffffffffffffffffffffffffffffffffffffffff1602179055503373ffffffffffffffffffffffffffffffffffffffff167f69908b2e63170aa89ef89719bbe3b4c92cccc38653968ab25f4464eff7c28ac860405160405180910390a2565b60003373ffffffffffffffffffffffffffffffffffffffff16600160003373ffffffffffffffffffffffffffffffffffffffff1673ffffffffffffffffffffffffffffffffffffffff16815260200190815260200160002060000160009054906101000a900473ffffffffffffffffffffffffffffffffffffffff1673ffffffffffffffffffffffffffffffffffffffff1614610ab6576040517f08c379a0000000000000000000000000000000000000000000000000000000008152600401610aad90611573565b60405180910390fd5b8173ffffffffffffffffffffffffffffffffffffffff166000808473ffffffffffffffffffffffffffffffffffffffff1673ffffffffffffffffffffffffffffffffffffffff16815260200190815260200160002060000160009054906101000a900473ffffffffffffffffffffffffffffffffffffffff1673ffffffffffffffffffffffffffffffffffffffff16149050919050565b60603373ffffffffffffffffffffffffffffffffffffffff16600160003373ffffffffffffffffffffffffffffffffffffffff1673ffffffffffffffffffffffffffffffffffffffff16815260200190815260200160002060000160009054906101000a900473ffffffffffffffffffffffffffffffffffffffff1673ffffffffffffffffffffffffffffffffffffffff161480610c7757503373ffffffffffffffffffffffffffffffffffffffff166000803373ffffffffffffffffffffffffffffffffffffffff1673ffffffffffffffffffffffffffffffffffffffff16815260200190815260200160002060000160009054906101000a900473ffffffffffffffffffffffffffffffffffffffff1673ffffffffffffffffffffffffffffffffffffffff16145b610cb6576040517f08c379a0000000000000000000000000000000000000000000000000000000008152600401610cad90611553565b60405180910390fd5b818073ffffffffffffffffffffffffffffffffffffffff166000808373ffffffffffffffffffffffffffffffffffffffff1673ffffffffffffffffffffffffffffffffffffffff16815260200190815260200160002060000160009054906101000a900473ffffffffffffffffffffffffffffffffffffffff1673ffffffffffffffffffffffffffffffffffffffff1614610d86576040517f08c379a0000000000000000000000000000000000000000000000000000000008152600401610d7d906115b3565b60405180910390fd5b6000808473ffffffffffffffffffffffffffffffffffffffff1673ffffffffffffffffffffffffffffffffffffffff168152602001908152602001600020600101805480602002602001604051908101604052809291908181526020016000905b82821015610ff357838290600052602060002090600502016040518060a0016040529081600082018054610e1a9061174f565b80601f0160208091040260200160405190810160405280929190818152602001828054610e469061174f565b8015610e935780601f10610e6857610100808354040283529160200191610e93565b820191906000526020600020905b815481529060010190602001808311610e7657829003601f168201915b50505050508152602001600182018054610eac9061174f565b80601f0160208091040260200160405190810160405280929190818152602001828054610ed89061174f565b8015610f255780601f10610efa57610100808354040283529160200191610f25565b820191906000526020600020905b815481529060010190602001808311610f0857829003601f168201915b505050505081526020016002820160009054906101000a900473ffffffffffffffffffffffffffffffffffffffff1673ffffffffffffffffffffffffffffffffffffffff1673ffffffffffffffffffffffffffffffffffffffff1681526020016003820160009054906101000a900473ffffffffffffffffffffffffffffffffffffffff1673ffffffffffffffffffffffffffffffffffffffff1673ffffffffffffffffffffffffffffffffffffffff16815260200160048201548152505081526020019060010190610de7565b50505050915050919050565b82805461100b9061174f565b90600052602060002090601f01602090048101928261102d5760008555611074565b82601f1061104657805160ff1916838001178555611074565b82800160010185558215611074579182015b82811115611073578251825591602001919060010190611058565b5b5090506110819190611085565b5090565b5b8082111561109e576000816000905550600101611086565b5090565b60006110b56110b084611624565b6115f3565b9050828152602081018484840111156110cd57600080fd5b6110d884828561170d565b509392505050565b6000813590506110ef816117f0565b92915050565b600082601f83011261110657600080fd5b81356111168482602086016110a2565b91505092915050565b60006020828403121561113157600080fd5b600061113f848285016110e0565b91505092915050565b60008060006060848603121561115d57600080fd5b600084013567ffffffffffffffff81111561117757600080fd5b611183868287016110f5565b935050602084013567ffffffffffffffff8111156111a057600080fd5b6111ac868287016110f5565b92505060406111bd868287016110e0565b9150509250925092565b60006111d38383611451565b905092915050565b6111e4816116c5565b82525050565b60006111f582611664565b6111ff8185611687565b93508360208202850161121185611654565b8060005b8581101561124d578484038952815161122e85826111c7565b94506112398361167a565b925060208a01995050600181019050611215565b50829750879550505050505092915050565b611268816116d7565b82525050565b60006112798261166f565b6112838185611698565b935061129381856020860161171c565b61129c816117df565b840191505092915050565b60006112b28261166f565b6112bc81856116a9565b93506112cc81856020860161171c565b6112d5816117df565b840191505092915050565b60006112eb8261166f565b6112f581856116ba565b935061130581856020860161171c565b80840191505092915050565b600061131e6015836116a9565b91507f53656e64657220646f6573206e6f7420657869737400000000000000000000006000830152602082019050919050565b600061135e6016836116a9565b91507f53656e646572206973206e6f74206120646f63746f72000000000000000000006000830152602082019050919050565b600061139e601b836116a9565b91507f546869732070617469656e7420616c72656164792065786973747300000000006000830152602082019050919050565b60006113de6016836116a9565b91507f50617469656e7420646f6573206e6f74206578697374000000000000000000006000830152602082019050919050565b600061141e601a836116a9565b91507f5468697320646f63746f7220616c7265616479206578697374730000000000006000830152602082019050919050565b600060a083016000830151848203600086015261146e828261126e565b91505060208301518482036020860152611488828261126e565b915050604083015161149d60408601826111db565b5060608301516114b060608601826111db565b5060808301516114c360808601826114ce565b508091505092915050565b6114d781611703565b82525050565b60006114e982846112e0565b915081905092915050565b6000602082019050818103600083015261150e81846111ea565b905092915050565b600060208201905061152b600083018461125f565b92915050565b6000602082019050818103600083015261154b81846112a7565b905092915050565b6000602082019050818103600083015261156c81611311565b9050919050565b6000602082019050818103600083015261158c81611351565b9050919050565b600060208201905081810360008301526115ac81611391565b9050919050565b600060208201905081810360008301526115cc816113d1565b9050919050565b600060208201905081810360008301526115ec81611411565b9050919050565b6000604051905081810181811067ffffffffffffffff8211171561161a576116196117b0565b5b8060405250919050565b600067ffffffffffffffff82111561163f5761163e6117b0565b5b601f19601f8301169050602081019050919050565b6000819050602082019050919050565b600081519050919050565b600081519050919050565b6000602082019050919050565b600082825260208201905092915050565b600082825260208201905092915050565b600082825260208201905092915050565b600081905092915050565b60006116d0826116e3565b9050919050565b60008115159050919050565b600073ffffffffffffffffffffffffffffffffffffffff82169050919050565b6000819050919050565b82818337600083830152505050565b60005b8381101561173a57808201518184015260208101905061171f565b83811115611749576000848401525b50505050565b6000600282049050600182168061176757607f821691505b6020821081141561177b5761177a611781565b5b50919050565b7f4e487b7100000000000000000000000000000000000000000000000000000000600052602260045260246000fd5b7f4e487b7100000000000000000000000000000000000000000000000000000000600052604160045260246000fd5b6000601f19601f8301169050919050565b6117f9816116c5565b811461180457600080fd5b5056fea2646970667358221220150009f25372d7f8bf025cd18cf7dd06cb30980f1338239251416921d37574bc64736f6c63430008000033",
  "immutableReferences": {},
  "source": "// SPDX-License-Identifier: MIT\npragma solidity ^0.8.0;\n\n/**\n * @title FAGARU\n * @dev Contrat pour la gestion des dossiers mdicaux des patients\n */\ncontract FAGARU {\n    struct Record {\n        string cid;\n        string fileName;\n        address patientId;\n        address doctorId;\n        uint256 timeAdded;\n    }\n\n    struct Patient {\n        address id;\n        Record[] records;\n    }\n\n    struct Doctor {\n        address id;\n    }\n\n    mapping(address => Patient) private patients;\n    mapping(address => Doctor) private doctors;\n\n    event PatientAdded(address indexed patientId);\n    event DoctorAdded(address indexed doctorId);\n    event RecordAdded(string indexed cid, address indexed patientId, address indexed doctorId);\n\n    modifier senderExists() {\n        require(\n            doctors[msg.sender].id == msg.sender || patients[msg.sender].id == msg.sender,\n            \"Sender does not exist\"\n        );\n        _;\n    }\n\n    modifier patientExists(address patientId) {\n        require(patients[patientId].id == patientId, \"Patient does not exist\");\n        _;\n    }\n\n    modifier senderIsDoctor() {\n        require(doctors[msg.sender].id == msg.sender, \"Sender is not a doctor\");\n        _;\n    }\n\n    /**\n     * @dev Ajoute un nouveau patient\n     * @param _patientId L'adresse du patient  ajouter\n     */\n    function addPatient(address _patientId) external senderIsDoctor {\n        require(patients[_patientId].id != _patientId, \"This patient already exists\");\n        patients[_patientId].id = _patientId;\n        emit PatientAdded(_patientId);\n    }\n\n    /**\n     * @dev Ajoute un nouveau docteur\n     */\n    function addDoctor() external {\n        require(doctors[msg.sender].id != msg.sender, \"This doctor already exists\");\n        doctors[msg.sender].id = msg.sender;\n        emit DoctorAdded(msg.sender);\n    }\n\n    /**\n     * @dev Ajoute un nouveau dossier mdical pour un patient\n     * @param _cid L'identifiant du contenu du dossier\n     * @param _fileName Le nom du fichier du dossier\n     * @param _patientId L'adresse du patient concern\n     */\n    function addRecord(string memory _cid, string memory _fileName, address _patientId) \n        external \n        patientExists(_patientId) \n    {\n        Record memory record = Record({\n            cid: _cid,\n            fileName: _fileName,\n            patientId: _patientId,\n            doctorId: msg.sender,\n            timeAdded: block.timestamp\n        });\n        patients[_patientId].records.push(record);\n        emit RecordAdded(_cid, _patientId, msg.sender);\n    }\n\n    /**\n     * @dev Rcupre les dossiers mdicaux d'un patient\n     * @param _patientId L'adresse du patient\n     * @return Un tableau des dossiers mdicaux du patient\n     */\n    function getRecords(address _patientId) \n        external \n        view \n        senderExists\n        patientExists(_patientId) \n        returns (Record[] memory) \n    {\n        return patients[_patientId].records;\n    }\n\n    /**\n     * @dev Rcupre le rle de l'expditeur\n     * @return Le rle de l'expditeur (\"doctor\", \"patient\", ou \"unknown\")\n     */\n    function getSenderRole() external view returns (string memory) {\n        if (doctors[msg.sender].id == msg.sender) {\n            return \"doctor\";\n        } else if (patients[msg.sender].id == msg.sender) {\n            return \"patient\";\n        } else {\n            return \"unknown\";\n        }\n    }\n\n    /**\n     * @dev Vrifie si un patient existe\n     * @param _patientId L'adresse du patient  vrifier\n     * @return Boolen indiquant si le patient existe\n     */\n    function getPatientExists(address _patientId) external view senderIsDoctor returns (bool) {\n        return patients[_patientId].id == _patientId;\n    }\n}",
  "sourcePath": "/home/louis/fagaru/backend/contracts/FAGARU.sol",
  "compiler": {
    "name": "solc",
    "version": "0.8.0+commit.c7dfd78e.Emscripten.clang"
  },
  "schemaVersion": "3.4.16",
  "updatedAt": "2024-10-23T06:44:18.493Z",
  "networkType": "ethereum",
  "devdoc": {
    "details": "Contrat pour la gestion des dossiers mdicaux des patients",
    "kind": "dev",
    "methods": {
      "addDoctor()": {
        "details": "Ajoute un nouveau docteur"
      },
      "addPatient(address)": {
        "details": "Ajoute un nouveau patient",
        "params": {
          "_patientId": "L'adresse du patient  ajouter"
        }
      },
      "addRecord(string,string,address)": {
        "details": "Ajoute un nouveau dossier mdical pour un patient",
        "params": {
          "_cid": "L'identifiant du contenu du dossier",
          "_fileName": "Le nom du fichier du dossier",
          "_patientId": "L'adresse du patient concern"
        }
      },
      "getPatientExists(address)": {
        "details": "Vrifie si un patient existe",
        "params": {
          "_patientId": "L'adresse du patient  vrifier"
        },
        "returns": {
          "_0": "Boolen indiquant si le patient existe"
        }
      },
      "getRecords(address)": {
        "details": "Rcupre les dossiers mdicaux d'un patient",
        "params": {
          "_patientId": "L'adresse du patient"
        },
        "returns": {
          "_0": "Un tableau des dossiers mdicaux du patient"
        }
      },
      "getSenderRole()": {
        "details": "Rcupre le rle de l'expditeur",
        "returns": {
          "_0": "Le rle de l'expditeur (\"doctor\", \"patient\", ou \"unknown\")"
        }
      }
    },
    "title": "FAGARU",
    "version": 1
  },
  "userdoc": {
    "kind": "user",
    "methods": {},
    "version": 1
  }
}